:060DFD00C2A58F80D2A701
:080E03007F027EEFDEFEDFFC42
:010E0B0022C4
:0A0E0C00C2A6120DFDC2A7020E03DC
:100DAD00CFCDCFCECCCE120B427C007D0A120B42A2
:040DBD00ED2430FFF2
:0A0DC100D2A6120DFDC2A7020E0318
:100DCB00AE07EEFB7A0064017004ED148009EB644E
:0E0DDB00024A7009ED243F4480FF120E0C22E4
:100DE9007F38120E0C7F0C120E0C7F06120E0C7F30
:040DF90001020E0CD9
:0A0E1600AC03120DCBAF04020DC1B6
:060D4A008B138A148915C9
:100D5000120DCBE4FDAB13AA14A9158D8275830087
:0C0D6000120B03FF6006120DC10D80E9AC
:010D6C002264
:0A0CF500EF24FFFDEE34FFFC7F0A40
:080CFF008E188F198C1A8D1B51
:100D07007F017E00E4FBEBC3951BE51A6480F87452
:0E0D17008098500AAC18AD19120B300B80E812
:010D250022AB
:040D26008A158B1689
:100D2A00120DCBAA17EAFF7E00D394007480948038
:0F0D3A00400D120CF5AC15AD16120DAD1A80E67A
:010D49002287
:040C6E008B828A8368
:100C7200120DCBC3E58364809480400D7F2B120D4F
:100C8200C185832185822280107F2D120DC1C3E48C
:100C92009582F522E49583F521AA20EAFF7E00D30E
:100CA200940074809480400D120CF5AC21AD221298
:050CB2000DAD1A80E603
:010CB700221A
:040C23008A258B266D
:100C2700120DCBAA27EAD39400748094804037EA48
:100C370024FFFDE434FFFC7F107E00120CFFAC257F
:100C4700AD26CFCDCFCECCCE120B42EF540FFEC385
:100C5700940A74809480EE5004243080022437FF75
:060C6700120DC11A80BF4E
:010C6D002264
:040CB8008A2A8B2BCE
:100CBC00120DCBAA2CEAFF7E00D394007480948092
:100CCC004026EF24FFFDEE34FFFC7F02120CFFAC3C
:100CDC002AAD2BCFCDCFCECCCE120B42EF5401246C
:080CEC0030FF120DC11A80CD8A
:010CF40022DD
:100D6D0070617373776F726400436F727265637431
:100D7D002070617373776F7264006572726F7200A9
:060E2000040CF7FBFDFECF
:10080000740C2511F8E6F5900511E51164047002E9
:10081000F511AF90EF6477701A7F14FE120D8DAF53
:1008200090EF6477706D751201AF90EF647760F9A7
:10083000020A1BAF90EF647B701A7F14FE120D8DBD
:10084000AF90EF647B700A751202AF90EF647B602B
:10085000F9020A1BAF90EF647D701A7F14FE120D2F
:100860008DAF90EF647D700A751203AF90EF647DD9
:1008700060F9020A1BAF90EF647E701A7F14FE12BB
:100880000D8DAF90EF647E700A751204AF90EF6427
:100890007E60F9020A1BAF90EF64B7701A7F14FEF6
:1008A000120D8DAF90EF64B7700A751205AF90EF1F
:1008B00064B760F9020A1BAF90EF64BB701A7F1433
:1008C000FE120D8DAF90EF64BB700A751206AF90EB
:1008D000EF64BB60F9020A1BAF90EF64BD701A7F32
:1008E00014FE120D8DAF90EF64BD700A751207AF44
:1008F00090EF64BD60F9020A1BAF90EF64BE701AFE
:100900007F14FE120D8DAF90EF64BE700A75120851
:10091000AF90EF64BE60F9020A1BAF90EF64D7702E
:100920001A7F14FE120D8DAF90EF64D7700A751206
:1009300009AF90EF64D760F9020A1BAF90EF64DB58
:10094000701A7F14FE120D8DAF90EF64DB700A7584
:10095000120AAF90EF64DB60F9020A1BAF90EF64FC
:10096000DD701A7F14FE120D8DAF90EF64DD700AFA
:1009700075120BAF90EF64DD60F9020A1BAF90EFC8
:1009800064DE70197F14FE120D8DAF90EF64DE707F
:100990000A75120CAF90EF64DE60F9807EAF90EFC5
:1009A00064E770197F14FE120D8DAF90EF64E7704D
:1009B0000A75120DAF90EF64E760F9805EAF90EFBB
:1009C00064EB70197F14FE120D8DAF90EF64EB7025
:1009D0000A75120EAF90EF64EB60F9803EAF90EFB6
:1009E00064ED70197F14FE120D8DAF90EF64ED7001
:1009F0000A75120FAF90EF64ED60F9801EAF90EFB3
:100A000064EE70207F14FE120D8DAF90EF64EE70D7
:100A10000A751210AF90EF64EE60F97F147E001239
:0D0A20000D8D8004E4FEFF22AF127E002247
:100A2D00120DE97BFF7A0D796D7D017F01120D4A63
:100A3D00E4F50AF50B1208008E088F09E509450843
:100A4D0060F3D3E509940AE50894005032E50B9460
:100A5D000FE50A94275028AE0AAF0B7C007D0A12D1
:100A6D000B308E0A8F0BAE08AF09120B42ED250B22
:100A7D00F50BEC350AF50A751704AB0BFA8021C39B
:100A8D00E509940EE5089400401DAE0AAF0B7C00FD
:100A9D007D0A120B428E0A8F0B751704AB0BAA0A37
:100AAD007D017F02120D26E50BB40D20E50AB40A77
:100ABD001BE509640B45087013120DE97BFF7A0DD8
:100ACD0079767D017F01120D4A020A42E50B640D14
:100ADD007004E50A640A7003020A42E509640B45D5
:100AED00086003020A427BFF7A0D79877D0A7F0138
:060AFD00120D4A020A423C
:100D8D00EF1FAA0670011E4A6015E4FCFDC3ED9429
:0F0D9D0073EC6480948050E80DBD00010C80EE73
:010DAC002224
:03000000020B9759
:0C0B9700787FE4F6D8FD75812C020BDE9F
:100B0300BB010CE58229F582E5833AF583E02250A7
:100B130006E92582F8E622BBFE06E92582F8E222F1
:0D0B2300E58229F582E5833AF583E493220B
:100B3000EF8DF0A4A8F0CF8CF0A428CE8DF0A42ED9
:020B4000FE2293
:100B4200BC000BBE0029EF8DF084FFADF022E4CC97
:100B5200F875F008EF2FFFEE33FEEC33FCEE9DEC60
:100B6200984005FCEE9DFE0FD5F0E9E4CEFD22EDA6
:100B7200F8F5F0EE8420D21CFEADF075F008EF2FF0
:100B8200FFED33FD4007985006D5F0F222C398FDE1
:050B92000FD5F0EA227E
:100BA300020A2DE493A3F8E493A34003F68001F231
:100BB30008DFF48029E493A3F85407240CC8C33353
:100BC300C4540F4420C8834004F456800146F6DF22
:100BD300E4800B0102040810204080900E20E47E84
:100BE300019360BCA3FF543F30E509541FFEE49317
:100BF300A360010ECF54C025E060A840B8E493A3DE
:100C0300FAE493A3F8E493A3C8C582C8CAC583CA08
:100C1300F0A3C8C582C8CAC583CADFE9DEE780BEC0
:010E260000CB
:00000001FF
